:1020000000800020853B00006D3B00006D3B000020
:1020100000000000000000000000000000000000C0
:102020000000000000000000000000006D3B000008
:1020300000000000000000006D3B0000D93B0000E4
:102040006D3B00006D3B00006D3B00006D3B0000F0
:102050006D3B00006D3B00006D3B0000713B0000DC
:102060006D3B00006D3B00006D3B00006D3B0000D0
:102070006D3B00006D3B0000DD3A00006D3B000051
:102080006D3B00006D3B00006D3B00006D3B0000B0
:10209000000000006D3B00006D3B00006D3B000048
:1020A0006D3B00006D3B00006D3B00006D3B000090
:1020B0000000000010B5064C2378002B07D1054B1B
:1020C000002B02D0044800E000BF0123237010BDA4
:1020D000A0000020000000004459000008B5084B93
:1020E000002B03D00748084900E000BF07480368F9
:1020F000002B03D0064B002B00D0984708BDC046EC
:102100000000000044590000A40000209C000020B2
:1021100000000000F0B5334CA54401F03DFE02F094
:1021200075FD012001F066FD2F4D1C21281C00F0DB
:10213000E7F9002844D02D4E281C311C00F0BEFACF
:1021400000283DD0291C01A8321C012300F06EFAA2
:1021500001A800F000F98021041CC90188422DD992
:1021600001A800F0E6F8224AC021A7182148C901B9
:102170003A1C01F0F5FBC024E40180220AA9920078
:1021800001A800F0CFF88023211C0AAA9B0019485F
:1021900001F08EFB80229200A318174AA418BC42BB
:1021A00001D21C1CE9E7012401A800F0EDF8002C85
:1021B00006D0281C311C00F08DFA01E00024F3E762
:1021C000C023DB011B6883F308880C4BC022D201BB
:1021D0009A600B4B1B68184700208B239B009D4483
:1021E000F0BDC046D4FDFFFFD4000020A84E000083
:1021F00000C0FFFFBC00002000A2FFFF00ED00E0D8
:102200000460000008B5002102480A1C01F038FBF8
:1022100008BDC046BC00002000207047704713B5C1
:1022200002686B46D97107335468191C0122A04714
:1022300016BD38B5041C006A0025A84202D101234E
:1022400063600AE0456092B201F004F8236A5B68BB
:10225000002B02D001236360281C38BD006A08B53A
:10226000002801D000F042FE08BD000013B56C4606
:102270000734211C012200F05DFD012801D12078E6
:1022800000E0014800B216BDFFFF0000006A08B57B
:10229000002802D0FFF7EAFF01E00120404208BD1C
:1022A00038B5051C006A00280AD0FFF7DFFF041CC0
:1022B000631C05D0286A0169013900F0E5FD201C86
:1022C00038BD0000F8B5FA239B0083600D4B002554
:1022D0000833041C4560036028200F1C161C02F004
:1022E000BBFC2062A8420AD0391C282202F0D7FC8D
:1022F000201C1030311C0C2202F09CFD2577201C84
:10230000F8BDC046B84E0000FA2292008260044A2E
:102310000023083243600260036203747047C046C2
:10232000B84E0000006A08B5002801D000F002FD98
:1023300008BD006A08B5002804D000F0A5FD431EC2
:102340009841C0B208BD036A002B01D0186901E0B2
:10235000012040427047006A002800D0C0697047E1
:1023600038B5041C006A00280BD0201CFFF7F3FFCF
:10237000051C201CFFF7E7FF024B281A984200D9E2
:10238000181C38BDFF7F000010B5041C006A00282F
:1023900006D000F0E7FD206A02F068FC002323620B
:1023A00010BD000010B50A1C0C498AB0041C0023A3
:1023B000009169464B720193211C6846012300F08D
:1023C00081FE041C601E8441E4B2002C02D06846E9
:1023D00000F0C8FD201C0AB010BDC046004F000030
:1023E00008B50123002A05D000F01AFF031C581E6F
:1023F0008341DBB2181C08BD38B50122051C0C1C3A
:1024000001F094F9021C0120002A03D1281C211C90
:1024100001F08CF938BDF0B50C68035D2F3B5D42CF
:102420006B41E418271C0C37231CC55C1E1B2F2D89
:1024300009D0002D07D00133161BF618013E357068
:10244000BB42F2D10C2600249455C25C2F3A544270
:1024500062419B180B60C05C431E9841C0B2F0BD46
:10246000F0B5A1B0039025480D1C049205930CAA69
:10247000002316A90D930C905372179316904B726C
:1024800007932C1C009207A908AA0398FFF7C3FF23
:102490000126021C72400190D2B2201C08A9059BA3
:1024A000049FB847002807D1AC4201D1002023E0A7
:1024B000201C00F057FDF9E7019F002F11D0331CBD
:1024C0000098211C08AA00F0FDFD061CAC420FD0AC
:1024D000201C00F047FD002EE8D0231C009C009338
:1024E000D1E7AC4202D0201C00F03CFD301C03E0E0
:1024F0000028DBD016ACF0E721B0F0BD004F0000A3
:1025000038B5031C41331B78041C0D1C002B02D072
:10251000383000F027FD201C01212A1C00F0C8F9EA
:10252000002801D100200FE0251C1035281C211C9B
:10253000FFF762FF0028F5D0201C3830291C00F07E
:10254000CFFB431E9841C0B238BD00004B684360CA
:102550000A4B03600B7A03724B7A4372CB68C360F9
:102560000B6903614B6943610B7E0376CB69C361E1
:102570000B6A496A036241627047C046004F00001F
:10258000F0B59DB008AE02920393274A002312AF24
:10259000051C73607B601031301C089273721292BC
:1025A0007B7200F09DFB029C201C2F2102F036FC68
:1025B00000282ED023782F2B01D10134F4E7001B03
:1025C000C0B2031C0C2800D90C23DBB21A1C211C3E
:1025D00004A8019302F02EFC019A002304A9381CE0
:1025E0008B5400F0BFFC381C311C04AA012300F0FE
:1025F00069FD002804D10C4B68602B60687210E004
:10260000019B301CE41800F0ADFC331C3E1C1F1C69
:10261000CAE70299039A641A1460281C311CFFF758
:1026200095FF281C1DB0F0BD004F0000F0B5A1B013
:10263000051C1F1C02A801AB161CFFF7A1FF019B84
:10264000F6183378002B07D102A916A8FFF77EFFF2
:10265000281C16A9174A28E000230CAC636063729B
:102660006B461133144A1B780C92002B03D1281CA3
:10267000FFF74AFE1BE0201C02A9321C3B1C00F0A5
:1026800021FD0028F3D002A800F06CFC06231F40B7
:102690009F4203D1201C139900F0F6FB211C16A8C1
:1026A000FFF754FF281C16A9321CFFF70BFE281C4D
:1026B00021B0F0BDE04E0000004F000008B5031C43
:1026C000081C191C3831024A0023FFF7C9FE08BD57
:1026D000A523000008B5031C081C191C3831024A48
:1026E0000023FFF7BDFE08BDE1230000084B0221D7
:1026F0001961191C002230310A7006495A719A7109
:102700009A721A73DA63996341331A707047C0463C
:10271000D4000020004F000008B5011C014801F062
:10272000ABF908BD8807002008B50248FF2101F079
:10273000A3F908BD8807002008B50121007901F040
:102740002BFC054B1A78002A04D0002203481A708B
:1027500001F080F908BDC046400100208807002034
:1027600010B5084B041C1A78002A06D101221A70F1
:10277000054B064806CB01F051F92079002101F004
:102780000BFC10BD4001002038010020880700200C
:1027900010B58379041C002B0DD023895A1C22818B
:1027A000054A934202D8FFF7BFFFF6E7201CFFF768
:1027B000C3FF0023A37110BD0102000000B506296C
:1027C00003D91623437100201CE00F4B052913D8B1
:1027D000081C002202F0C0F9030507090B0D0B4984
:1027E00008E00B4906E00B4904E00B4902E00B4905
:1027F00000E00B49196002E00A4A1A6000221A71CF
:102800005A71012000BDC04638010020001BB700EE
:1028100000093D0080841E0040420F0020A10700F7
:1028200090D0030048E8010038B50C1C01F0DCF939
:10283000051CFFF779FFFF2806D001F0D5F9401BF2
:10284000A042F6D3002000E0012038BDF8B5041CFA
:102850000E1C171CFFF79CFF201CFFF781FF962121
:102860004900201CFFF7E0FF40203043FFF754FFF2
:102870001825381CE840C0B2083DFFF74DFF2B1C5F
:102880000833F6D19520002E03D08720082E00D0E3
:10289000FF20FFF741FF0025FFF746FF43B2E0723C
:1028A000002B04DAFF2D02D00135EDB2F4E7F8BDBC
:1028B000F7B5002502710573857285714571041C99
:1028C000019101F091F90121071C207901F00AFB27
:1028D0000121207901F060FB424E301C01F076F8B6
:1028E000414B42491D715D711960301C5A6801F0FD
:1028F00095F80A25013DFF20EDB2FFF70DFF002DF1
:10290000F8D1301C01F0A6F8201CFFF729FF0021A8
:10291000201C0A1CFFF79AFF061CE072012808D051
:1029200001F062F9FA23C01BDB009842EFD90123C2
:102930003BE0D522201C08215200FFF787FF04232B
:10294000184201D026730BE01E1CFFF7EDFE013E7E
:10295000F6B2E072002EF8D10223AA2825D1237303
:10296000267B023E73425E41B60737210022201CBF
:10297000FFF76CFF321C201C2921FFF767FF021CA8
:10298000E07208D001F030F9FA23C01BDB00984256
:10299000EBD9082309E0237B022B19D1201C3A2113
:1029A000FFF754FF002805D006236371201CFFF7B2
:1029B000C3FE15E0FFF7B8FEC0231840984201D1CE
:1029C00003232373FFF7B0FEFFF7AEFEFFF7ACFE65
:1029D000201CFFF7B1FE201C0199FFF7EFFE051C3C
:1029E000281CFEBD880700203801002090D003007D
:1029F00038B5041C01F0F8F8051CFFF795FEE072ED
:102A0000FF2808D101F0F0F89623401B5B009842A4
:102A1000F3D90F2302E0FE2806D00D23201C63719A
:102A2000FFF78AFE002000E0012038BDF8B5041C45
:102A30000F1C151C1E1E45D09A1880239B009A421D
:102A400042DC8379002B05D00268914202D10389D0
:102A5000AB4216D9237B2760032B00D07F023A1CA0
:102A6000201C1121FFF7F2FE071E02D00323637121
:102A70002AE0201CFFF7BCFF002825D00123278176
:102A8000A3712389AB4205D2FFF74EFE23890133A0
:102A90002381F6E7069D069AAB1A9BB2B34204D295
:102AA000FFF742FE28700135F5E72389A27AF31873
:102AB0009BB22381002A02D0064A934202D9201CED
:102AC000FFF766FE012003E0201CFFF735FE002023
:102AD000F8BDC046FF01000007B5802300929B00AF
:102AE0000022FFF7A3FF0EBD70B5051C081C161CC5
:102AF000FFF712FE0024305DFFF70EFE0134802345
:102B00009B009C42F7D1FF20FFF706FEFF20FFF756
:102B100003FEFFF709FE1F23E87203400120052B87
:102B200005D01123281C6B71FFF706FE002070BD35
:102B300070B50B1C041C161C002901D1122328E0BF
:102B4000027B032A00D04B02201C18211A1CFFF71D
:102B50007DFE051E01D004231BE0201CFE21321C3B
:102B6000FFF7C2FF002815D09621201C8900FFF72F
:102B70005BFE002801D115230BE0201C0D212A1C2F
:102B8000FFF764FE002803D1FFF7CEFD002806D032
:102B900014236371201CFFF7CFFD002003E0201CED
:102BA000FFF7CAFD012070BD034B044A1A600022E2
:102BB0005A711A717047C0463801002000093D0063
:102BC000021C10B50C32041C0121406A00F024FDE7
:102BD00000280AD0236A0120002B06D1E368227A5C
:102BE000236280235B421343237210BD70B5041C23
:102BF000FFF7E6FF002801D100201BE0636AE668CA
:102C00001A7C023E96405A691D79B618002D08D0EC
:102C1000701E401900F04CFC0028EDD0013DEDB2D3
:102C2000F4E7636A01201A7C80239B009340E269E9
:102C3000D318E36170BD000010B5041C406900F0BA
:102C400013FC002803D0207E014B4001C01810BDAA
:102C500050010020F0B5002387B0071C0E1C202275
:102C6000F25401330B2BFAD10721002501913C7856
:102C7000002C2AD02E2C06D1019B0A2B2BD00A2106
:102C8000082501911FE002A81449102202F007F85C
:102C9000002302A9CA5C002A03D00133A242F8D162
:102CA00019E0019B9D4216D8231C213B5D2B12D8B5
:102CB000221C6B1C613ADBB27519192A01D8203C21
:102CC000E4B22C701D1C0137D1E730782038431E48
:102CD0009841C0B200E0002007B0F0BDE24E000015
:102CE00038B5427A041C0D1C002A01D000201FE0D8
:102CF0004B1CDB7F102B06D10223437202624B8CEC
:102D00005B01C3610CE0202BF0D103234372496ABD
:102D1000221C01621C32281C00F018FC0028E5D09F
:102D20000023012065622072E360236163612376E2
:102D300038BD0000F0B5437A85B0041C0E1C039228
:102D4000002B01D13A4811E0037AD807FAD5E2699D
:102D500020690399131A994201D99BB203930399ED
:102D60000291029B002B04D1039988B200B205B0F6
:102D7000F0BD2369617ADF05FF0D5A0A606A0229F6
:102D800002D1416A51181BE00579013D2A40D5B2B4
:102D9000002F0DD1002D0BD1002B02D1226AE26051
:102DA00006E0221CE1680C3200F0A0FB0028C9D02C
:102DB000636AE1681A7C02395B699140C918491954
:102DC0008022029D9200D31B9D4200DD9DB2237A9A
:102DD000580601D4954218D1164B1B68994214D05D
:102DE000154B3A1C186800962B1CFFF71FFE002895
:102DF000A8D0761901E0DF1BF6192169029A4B1958
:102E0000551BADB223610295ABE7081C002100F011
:102E10002BFB002896D0094B321CFF1879193B1C5C
:102E20008B42E8D01878013310700132F8E7C046C1
:102E3000FFFF0000000000204C0100205001002096
:102E400073B5437A041C012B01D8002016E00369F6
:102E50006D460735DE05291C0122360FFFF76AFF94
:102E6000012801D12B7800E0054B1BB20133ECD0D7
:102E7000236970011F332361024BC01876BDC04621
:102E8000FFFF00005001002070B5041C407A0D1CAB
:102E900000282AD0E269914201D9002025E00228C9
:102EA00021D0002D01D1E5601DE0626A2169137C0B
:102EB000681E09334A1ED840DA40031E934201D3EC
:102EC000002902D1226AE26000E0831A1E1C002E53
:102ED00009D0221C606AE1680C3200F007FB013E59
:102EE0000028F4D101E02561012070BD38B5051C32
:102EF000407A002833D02B7A7F2B2DD9281C012132
:102F0000FFF79AFE041E2AD06B7A012B07D82B7F7D
:102F100003776B7F4377AB7F8377EB7FC3772B6A36
:102F20009AB21B0C23751B0A63750D4BA2761B68A6
:102F3000120AE276002B0BD0201C211C183016310F
:102F40009847637E227E1B021343A3741B0AE3741B
:102F50002A7A7F2313402B7200F05CFAFFE738BD1A
:102F60004401002010B5041CFFF7C0FF002802D068
:102F700000236372012010BD73B5427A041C0D1C3E
:102F80000020012A4BD1207A0223184047D0E36960
:102F90000020994243D8101C002B40D0201C291C33
:102FA0002669FFF771FF002825D0606A002D06D141
:102FB000216A00F095FB00281DD025621DE0E16824
:102FC00001AA00F093FA002815D0606A0199431C09
:102FD000DB7F102B01D1124B00E0124B99420CD237
:102FE00000F07EFB002806D0606AE1680E4A00F01F
:102FF000CFFA002801D1002011E0227A80235B4221
:103000001343E5612372201CFFF770FF0028F2D004
:10301000291EB14200D9311C201CFFF735FF76BDB7
:10302000F8FF0000F8FFFF0FFFFFFF0F38B5234B3D
:10303000151C4A01D318041CD87A1122104204D05E
:103040004222154201D0002036E01D4A2176126846
:1030500062615A7D187DD97E12020243987E090270
:103060001204014311432162D87A182202400CD184
:103070005A7F197F12020A43997FDB7F09040A43B2
:103080001B061343E361012309E0102ADBD1221C54
:10309000606A1C3200F05AFA0028D4D0042363720C
:1030A0000F2300212B402372E160216101206A0679
:1030B00002D5201CFFF760FF38BDC046500100203C
:1030C00000000020F0B5457A87B0041C0E1C019367
:1030D000002D00D086E0101C03A9FFF7BBFD0028DF
:1030E00000D180E0726A2F1C6262F560356133693D
:1030F000F269934226D2DB051B0F301C0093FFF7C9
:103100009FFE011E6FD00378002B01D0E52B0BD161
:10311000002F04D1009B2376344B1B6863610B782E
:103120000127002BE3D10DE003A80B2201F0A8FD3D
:103130000028DCD1019A30231340302B53D0201CBF
:1031400000994BE0019A12231340122B4BD1002F10
:1031500006D0201C0121FFF76FFD061E0AD142E0B8
:10316000737A022B3FD0301CFFF740FD00283AD085
:103170001F4E277600212022301C01F099FD301CC3
:1031800003A90B2201F08BFD1A4B1B68002B05D005
:10319000301C311C10300E31984706E02122327469
:1031A000B373282208237274F373737C327C1B027E
:1031B0001343FF221A401B0AF3747376F37BB27435
:1031C0003276B27B1B021343B3751B0AF37500F012
:1031D00021F9002807D0217E019A201CFFF726FF45
:1031E000051C00E00025281C07B0F0BD00000020F1
:1031F000500100204401002010B50021041CFFF7FD
:10320000BBFE00280BD0201C0121FFF715FD002874
:1032100005D0E52303700023637200F0FBF810BDB6
:1032200010B50A1C0A498AB008310023041C009119
:1032300069464B7201936846211C0223FFF742FF47
:10324000002802D06846FFF7D7FF0AB010BDC0467D
:10325000F84E0000F0B5437A87B0041C0D1C0392B1
:10326000012B0DD1037A99070AD55A070CD5E169CC
:1032700022698A4208D0201CFFF706FE002803D1ED
:10328000012363600020AAE0039B01933BE0606A96
:10329000730A0779F605013F1F40FFB2F60D002FB4
:1032A00036D080229200921B019992B20B1C91425F
:1032B00000D9131C9BB20293636AE1681A7C02393D
:1032C00091405A698B18029ADF1980239B009A4219
:1032D0003FD1444B1968B94202D1012252421A60CF
:1032E000414B391C18682A1CFFF722FC0028C7D064
:1032F00080229200AD180199029A8B1A21699BB223
:1033000001938B182361019A2669002ABFD149E0F5
:10331000002EC6D1E168002903D1236A002B16D103
:103320000FE005AA00F0E2F8002858D0626A059B79
:103330000132D27F102A01D12C4A00E02C4A93425C
:1033400005D3201CFFF73CFC0028AAD198E7E360D6
:10335000A7E7002E0FD12369E1698B420BD300F060
:1033600059F800288CD01F4B01211F60214B1A787F
:103370000A431A7006E0381C012100F075F8002895
:1033800000D17DE71C4B2A1CF618029BF118331C58
:103390008B4204D01078013218700133F8E79E1B7D
:1033A000AD19A8E7E169237A8E4201D9E66106E00A
:1033B000124A1268002A06D0039A002A03D08022FB
:1033C000524213432372237A190701D4039806E06B
:1033D000201CFFF78BFD002800D151E7F6E707B06E
:1033E000F0BDC046000000204C010020F8FF0000A6
:1033F000F8FFFF0F5003002050010020440100207F
:1034000007B56B46D9710733191C0122FFF722FF5C
:103410000EBD0000F8B50F4F01203B78002B18D0EF
:103420000D4E0E4B0E4D196830682A1CFFF780FBBD
:1034300000280ED00B4C2168002907D030682A1CC8
:10344000FFF776FB002804D00023236000233B70A5
:103450000120F8BD500300204C0100200000002096
:10346000500100204801002070B50D4D041C2B6850
:103470000E1C83420ED0FFF7CDFF002801D10020A3
:103480000DE0084B211C1868074AFFF725FB0028B0
:10349000F5D02C60054B01201A7816431E7070BDC4
:1034A000000000204C0100205001002050030020AB
:1034B00010B5041CFFF7AEFF00280FD00023084A08
:1034C000002199548022013392009342F7D1054B99
:1034D00001201C60044B1A7802431A7010BDC046CC
:1034E000500100200000002050030020C36870B588
:1034F00001330C1C151C994201D9002021E0461C07
:10350000F17FC269E309102900D1230A98180D4BF5
:103510001B68984207D1F27F0B4B102A09D1E4B205
:1035200064001B5B0BE00021FFF79EFF0028F2D137
:10353000E3E77F221440A4001B591B011B092B60E9
:10354000012070BD000000205001002073B5051C53
:103550000191161C0024281C019901AAFFF7C6FF3F
:10356000002810D02A7C80239B009340E4186B1C19
:10357000DB7F019A102B01D1034B00E0034B9A42F1
:10358000E9D33460012076BDF8FF0000F8FFFF0F9B
:10359000F7B5051C0C1C0192012932D9C368002023
:1035A000013399422ED86F1CFA7FEE69CB09102A9D
:1035B00000D10B0A9E19144B1B689E4208D1FA7F5A
:1035C000124B102A0BD1E4B2019A64001A530BE09B
:1035D000301C0021FFF748FF0028F0D112E07F22C5
:1035E0001440019AA4001A51094B01201A78024391
:1035F0001A702B7E834205D9AB68F618054B1E6006
:1036000000E00020FEBDC046000000205001002068
:103610005003002048010020F0B5156887B0061C53
:103620000291171C002D03D000210135019106E005
:10363000029B0568013B5A425341DBB20193F26899
:103640000023013203922C1C00930099F2689142EE
:1036500021D2039B9C4201D90224251C301C211C31
:1036600005AAFFF743FF002815D00599631C002920
:1036700001D01D1C03E002995A1B8A4204D0009A13
:103680001C1C01320092E0E7301C211C134AFFF79A
:103690007FFF00280BD100201DE0631E301C191C89
:1036A000221C0093FFF774FF0028F4D0009CAC426A
:1036B000F3D83968002906D101993D60002909D065
:1036C0000135356006E0301C2A1CFFF761FF002839
:1036D000F2D1E0E7012007B0F0BDC046FFFFFF0FC9
:1036E000022337B5051C0C1C0360281C211C01AAF1
:1036F000FFF7FCFE002812D0281C211C0022FFF737
:1037000047FF00280BD06B1CDB7F019C102B01D1E5
:10371000044B00E0044B9C42E7D3012000E0002072
:103720003EBDC046F8FF0000F8FFFF0FF8B5444B60
:10373000041C151C196029D0042A01D900207DE041
:103740000020011CFFF790FE0028F7D02D013D4B13
:10375000A935FF355D19AA79AB1D5006EED1EA7C7B
:10376000A97C12020A43297D09040A43697D0906DE
:103770000A43632AE2D9AA7BED7B2D0215439A7A8C
:10378000DB7A120415431B061D43D7D0281C0021E9
:10379000FFF76AFE0028D1D02A4B197BDA7A09029A
:1037A0001143802292009142C8D11A7C002AC5D0D0
:1037B000D9890029C2D0597B0029BFD022760022A6
:1037C00021712274227C01209040814204D0501C3F
:1037D0002074072AF6D9B1E7D98A002900D1596A9D
:1037E000A160D8892818E0611F693E02360C668402
:1037F000B7B21E7C71430E1813487901091849129B
:10380000711866626161187DDE7C0002304300D170
:10381000186A6D1A2818D040021CE0600B48611C21
:10382000824201D80C2307E00948824201D81023C4
:1038300002E0DB6A63622023CB770120F8BDC0463B
:103840004C01002050010020FF010000F40F000097
:10385000F4FF000008B50549054A064800F010F8D5
:10386000054B064900221A705A5408BD005000004A
:1038700001040000540300206C0300200204000037
:1038800030B5094C094BA5686D036D0FAD00EB58C1
:103890000360A4680161A4B244605C439B0084603F
:1038A000C360426130BDC046004000410055000089
:1038B000F7B51F4E8027756803333D439B0875603D
:1038C000002B34D01B4D3580357DEF07FCD51D1CFA
:1038D0005F1B01970768BF08BC46019F67451FD261
:1038E000002D1DD01778013D0197FF27BC43019F94
:1038F0003C4357783F0201970F4F3C40019F3C43A8
:1039000097783F04BC460D4F3C40D778A4B23F06A1
:10391000009767463C43009F04323C4310C1D7E701
:10392000074B3380337DDF07FCD52B1CC8E7F7BD81
:103930000040004144A5FFFFFF00FFFFFFFF00FF25
:1039400004A5FFFF044B054A4908D9611A801A7D76
:10395000D107FCD57047C0460040004102A5FFFFDB
:1039600070B5051C0C1C161CEB68281C211C9E4203
:1039700005D9FFF7E7FFEB68E418F61AF4E7FFF75D
:10398000E1FF70BD437A002B04D18372C372C36020
:1039900001234372704730B585B0041C02AD006846
:1039A0000291039200F088FC6B79E179227A00930E
:1039B0002068002300F022FD29792068029A00F097
:1039C0004BFC206800F06EFC05B030BD70B5041CE7
:1039D0001826FFF7D7FF2079331C43430D4D0821EC
:1039E000EB18595600F008FBA079331C434308211B
:1039F000EB18595600F000FB607908214643AD19D9
:103A0000695600F0F9FA044B201C06CBFFF7C3FF00
:103A100070BDC046205500007007002007B5837AAE
:103A200000910192002B0DD09A0706D5EFF3108379
:103A30005A425341C37272B604E0DA0702D5828952
:103A4000034B9A600099019AFFF7A5FF07BDC04696
:103A500000180040837A002B0BD09A0704D5C37A54
:103A6000002B06D062B604E0DA0702D58289014B4A
:103A7000DA6070470018004008B5006800F025FCC7
:103A800008BD00000F4B104A10491A6000225A71FD
:103A90001A710F4B0F4819600A2119710921997188
:103AA0000821597103215A72DA7119720A4B186090
:103AB0001D2018711B2098711A205A725871DA71E2
:103AC000197270477007002000093D005C08002053
:103AD00078070020600800208807002008B5024809
:103AE00000F066FD08BDC0469807002013B51249D6
:103AF000124800F031FB1249124800F02DFB124928
:103B0000124800F029FB1249124800F025FB124927
:103B1000124800F021FB124C1249201C00F01CFB43
:103B20000323009301230193211C0D220E230E4831
:103B300000F02CFD13BDC0460008004258080020CC
:103B4000000C00425C0800200010004260080020C9
:103B500000140042540800200018004264080020AD
:103B600068080020001C004298070020FEE70000C3
:103B700008B5034B1B68002B00D0984708BDC04612
:103B80006C08002038B50F490F4CA14204D100F059
:103B90004FF8FEF7BFFA0BE00C4D8D42F7D0002333
:103BA000CA18E818A24204D2006804331060F7E78C
:103BB000FEE79042EBD0064B064A9342E7D2002242
:103BC00004C3F9E700000020A000002048590000CD
:103BD000A0000020500D002008B500F026F80028B5
:103BE00001D100F017F808BD014B18687047C046B6
:103BF0007008002070B5041E08D0054B1D681E1CFF
:103C000000F012F833685B1BA342F9D370BDC046C5
:103C10007008002008B5034B1A6801321A6000F0E2
:103C200061FA08BD7008002070470020704700004E
:103C300070B5494A1E21536802208B43034347490C
:103C400053608B69082423438B61454C454B9C8210
:103C50009C8A20439882101CDA689407FCD5424A5B
:103C6000012414701478E50704D53F4C647864B2DD
:103C7000002CF7DB01249460547864B2002CFBDB49
:103C80003A4D394C6560547864B2002CFBDB8225D8
:103C9000354CED016580547864B2002CFBDB0224C6
:103CA0009C84DC68E606FCD5314D2E4CE562DD686F
:103CB0002C4CEE06FBD5A58C2E4E3543A584DD6835
:103CC000284CEE06FBD5A58C02263543A584DC687E
:103CD0002506FCD5234CE4686606F8D5DC68E506C5
:103CE000FCD500249460547864B2002CFBDB224D98
:103CF0001D4C656055781C4C6DB2002DFADB1E6AB8
:103D00001E4D35401D621D6A8026B5431D6203238A
:103D1000A3601B4B636053785BB2002BFBDB00237B
:103D20000B72184A4B728B72CB72174BFF211A60C1
:103D3000164B174A1B6812685C01D20E21401143D2
:103D40009A06520F12020B1C1343124A1385436842
:103D500080221343436070BD0040004100040040D6
:103D60000C06000000080040000C004001050100A6
:103D7000B905FF7D040A000000070300FFFCFFFFF8
:103D800003060100006CDC020400002024608000B7
:103D90002060800000400042314BFA21186810B5C5
:103DA000890000F0E3FE2F4B0138984224D82E4AB8
:103DB0002E4B5060186AC0210002000A0906014318
:103DC00019620024072194601160196A8022090297
:103DD000090A12060A431A62254BFC211A6A0A4391
:103DE0001A62196AFC2292010A431A62196AA02215
:103DF000D2020A431A6200E0FEE7201C00210134CF
:103E000000F070F80F2CF8D11A4C63785BB2002BDD
:103E1000FADB194B6380194B5A7ED209012AFAD07A
:103E2000E422D2009A803F22DA70597E134AC909EF
:103E30000129FAD0C0235B0100201361907000F0CB
:103E400023F863785BB2002BFBDB0D4A094B5A80E9
:103E50000C4BDA79D209012AFAD041225A7010BDEE
:103E600004000020FFFFFF0010E000E000ED00E094
:103E700000040040000C00401E40000000400042D2
:103E8000214000000048004200B5144A517E131C36
:103E9000C9090129F9D00138042813D81969104A31
:103EA0000A401A615A780F218A4300F055FE030533
:103EB00009070300012102E0032100E002210A4377
:103EC0005A700AE01169F0231B050B431361537804
:103ED0000F218B4302210B43537000BD0040004271
:103EE000FFFFFFF010B51824021C201C5043274B85
:103EF0001818007A40B2013046D0032944D8081C73
:103F0000211C00F029FE02331121624398569A18B1
:103F1000C3011F4852681B189918403102200870CD
:103F20000121914059602FE06243985618499A1830
:103F30005268C3015B1899184031062008700121AE
:103F40009140596099611FE051435A5610485918E1
:103F50004B68D2011118C8184030062404700120A3
:103F6000984048600B49521850600DE062439856E3
:103F70009A18C301064852681B189918403102204C
:103F8000087001219140996010BDC0462055000085
:103F9000004400411044004118235843134AF0B52F
:103FA000131808241C5701341FD08256104ED2011A
:103FB0005D6801249019231C8668AB401E420BD11A
:103FC0000E1C771EBE41401934404030A5000478D5
:103FD0000426B4432C430470002903D10549521828
:103FE000536002E0024E92199361F0BD205500002B
:103FF000004400411044004118224243F8B52D4DC1
:104000000824AA181457031C621C50D0481C002412
:104010000C284CD800F0A0FD071E1E1E1E1E1E1EE2
:104020001E0A0A0A0A000124644240E0092902D15A
:10403000181C002103E00A2904D1181C0221FFF7F3
:1040400051FF23E000240B2931D1181C0121FFF777
:1040500049FF2CE018225343EA185268EB5601201E
:10406000141C04405508DB01002C11D0124C1B1904
:104070005D1930352E780C010F21314021439A18FB
:10408000C9B22970403213781843107000240EE032
:10409000094E0F279B195D1930352E789A18BE43AB
:1040A0003143C9B229704032137818431070201C74
:1040B000F8BDC0462055000000440041F7B58A18FD
:1040C000061C0D1C01920C1C019B671B9C4207D017
:1040D000336821781B68301C984701340028F3D1DD
:1040E000381CFEBD154A1368581C25D0013B1360CF
:1040F000002B21D172B6124A124B04329A4207D8D1
:10410000BFF34F8F104A114BDA60BFF34F8F11E0AE
:104110000F4B197DC807FBD5188B2021FF31920862
:10412000520001431983DA610A4A1A801A7DD107C5
:10413000FCD5E5E7C046FDE77047C0460800002013
:1041400000200000030200000400FA0500ED00E07A
:104150000040004102A5FFFF01607047F7B508ACC1
:10416000267804689D1E27686C1EA541ECB2920754
:1041700005683A4327063A432A6002680725294022
:104180005068B501002C00D05C03294301430C4367
:104190005460F7BD30B50368C0251C68AD03120537
:1041A0002A402243C024A40209042140114319607B
:1041B00003685A6814435C6030BD036801211A68C3
:1041C0000A431A600268116801231942FBD1D169C0
:1041D0001942F8D17047036802211A680A431A602D
:1041E0000268D3699907FCD4704703681A7ED10727
:1041F00002D41A7E9107FCD57047036800225A83C7
:1042000070470368187E4007C00F70470368187E28
:10421000C009704703688022197E52420A431A7609
:1042200070470368187E0123184070470368188D93
:10423000C0B2704703681A7E01200242FBD0198584
:104240007047036801219A7D0A439A757047036895
:1042500001221A757047000070B5036801268D07AA
:10426000ED0F31401C686D07090729432143196090
:1042700004685100034800F079FC0138C0B2207393
:1042800070BDC046006CDC02036801211A680A4355
:104290001A600268116801231942FBD1D1691942E1
:1042A000F8D17047036802211A680A431A6002684D
:1042B000D3699907FCD470470368DA699107FCD485
:1042C0001A6802218A431A60704703689A6A520A80
:1042D00052021143996203681A7E5107FCD5986A0D
:1042E000C0B270470368224A30B5934211D0214AC8
:1042F000934211D0204A934211D0204A934211D0C8
:104300001F4A934211D01F4A934230D10E231922E3
:104310000DE0092314220AE00A23152207E00B23EB
:10432000162204E00C23172201E00D231822DCB230
:10433000154901209B08A0409B0008605B180320E2
:10434000C021890004405D58E000FF248440A5435B
:104350002C1CC0258540281C204358508023DB019D
:104360001A430A4B5A805A7852B2002AFBDB30BDFE
:1043700000080042000C00420010004200140042FD
:1043800000180042001C004200E100E0000C004068
:10439000F8B5041C151C0E1C1F1CFFF7A3FF201CE6
:1043A000FFF70BFFB1001C220A4069072368090CC4
:1043B0000A431A60226884239375012E1AD10821BA
:1043C000012D00D110210C4B79431868C00000F07A
:1043D000CDFB236807219A890140D2044903D20CFE
:1043E0000A439A8123680004C20C9889400B400359
:1043F00010439881F8BDC04604000020F7B5019332
:1044000008AB041C1F780D1C161CFFF73DFF201C79
:10441000FFF768FFBF070C221743C022920336053F
:104420001640C02292022D0423683E430199154094
:10443000354307221D600A408021236889020A4310
:104440005A60F7BD0120704708B50368014A1B6A2E
:10445000984708BD1304000010B5041C0069FFF75D
:10446000ACFE201C143000F041FB201C5C3000F03E
:104470003DFB10BD08B5143000F04AFB08BD10B577
:10448000041C201C5C3000F043FB0028F9D120699B
:10449000FFF7ABFE10BD08B55C3000F03FFB08BD78
:1044A00070B5051C1435041C281C00F023FB231CCC
:1044B000A8331B78061CFF2B0AD0281C00F02EFB0B
:1044C0000A2805DD231CB033B4341B6822681A6047
:1044D000301C70BD08B5143000F02AFB08BD70B563
:1044E000041C00690E1CFFF79CFE251C5C3500288F
:1044F00004D0281C00F00CFB00280CD0281C00F075
:1045000020FB0028FAD1281C311C00F0E4FA2069B5
:10451000FFF797FE03E02069311CFFF78BFE0120B7
:1045200070BD0000F0B585B01D1C0AAB1B78041CE3
:1045300000930BAB1B78161C01930CAB1B780F1C64
:1045400002930DAB1B78039300234360FA239B0077
:1045500083600D4B08330360143000F0B1FA201C67
:104560005C3000F0ADFA009A231CA43327619A70E6
:10457000019A201CDA70029A1E701A71039A5D70FB
:104580001A7505B0F0BDC0468058000030B585B042
:10459000041C08A8057809A8007800950190FF2060
:1045A00002900390201CFFF7BDFF201C05B030BD1A
:1045B00038B5041C0069FFF724FE002819D02069D3
:1045C000FFF734FE251C1435011C281C00F083FA6B
:1045D000231CA8331B78FF2B0BD0281C00F09EFA5D
:1045E000092806DC231C221CAC33B4321B68126879
:1045F0001A602069FFF715FE002811D0251C5C35D4
:10460000281C00F085FA002807D0281C00F072FA58
:10461000C1B22069FFF70EFE02E02069FFF717FE26
:104620002069FFF7F3FD002805D02069FFF7F2FDB0
:104630002069FFF7E2FD38BDF023081C1840303830
:10464000434258417047F0231B01194080239B00CF
:1046500099420CD0C0239B00994206D080235B0076
:104660000520994204D0002002E0072000E0062047
:1046700070470F231940012905D002394B424B41A5
:104680000220C01A00E0002070470000F0B5031CB3
:1046900085B00391A433041C182718783B1C4343AE
:1046A000344E0821F3185956151CFFF7A5FC231C9E
:1046B000A53318783B1C43430821F3185956FFF7DC
:1046C0009BFC231CA7331B78022B0AD1231CB83375
:1046D0001878FF2805D047430821F7197956FFF7C6
:1046E0008BFC271CA8373878FF281AD00121FFF748
:1046F000F9FB3B7818225A43B3561F4FDB01211CAC
:10470000AC31D81908601D49B6185B18211C7268B5
:10471000B0310B60012191400A1C211CB4310A60A8
:104720001A6001210A1C039B2069FFF731FE291C36
:10473000201CFFF788FF291C071C201CFFF799FF8E
:10474000291C061C201CFFF777FF391C0090331C26
:1047500020690122FFF702FD231CA7331978013BD2
:104760001A782069FFF716FD2069FFF734FD05B0C0
:10477000F0BDC046205500001844004114440041DB
:104780003F20704713B502686B46D97107335468F0
:10479000191C0122A04716BD08B50069022100F0CE
:1047A00049F808BD08B50069032100F059F808BDB3
:1047B00038B50D1C041C131C006903212A1C00F0D1
:1047C000F1F8002801D10123636038BD10B5054C14
:1047D00023685A1C04D103685B6998472060031C56
:1047E000181C10BD0C000020074A08B51368591C9E
:1047F00004D0012149421160181C03E00069022124
:1048000000F0C2F808BDC0460C000020064BFA219B
:1048100089009960054900220831196004495A60ED
:1048200019611A767047C04674080020B858000015
:10483000340C002008B5084B8A00D058002803D05B
:1048400003689B68984706E0C9B2044B49015918B0
:1048500088688004800C08BD180C0020380C0020EB
:1048600010B50C1CFFF7E6FF00280CD0064BE1B298
:104870001B680831490159184A7980235B42134368
:104880004B710223CB7110BD380C002010B5C9B29A
:104890000C48490143189A689204920C3F2A08D99F
:1048A000141C9A68403CA404920BA40C920322436B
:1048B00002E09A68920B92039A6041188868C0B22D
:1048C00010BDC046380C0020F0B51C1C2A4B85B02A
:1048D0001B68061C0D1C0292002B46D0274B8A0039
:1048E000D058002805D0036802995B68221C9847BD
:1048F0003FE0301CFFF79EFFA04204D2301C291C71
:10490000FFF798FF041C291C301CFFF7BFFF1C4F4A
:10491000E9B24A010191396803928B18FF335A7A40
:1049200001210A4317495A72AB01C9180298221C87
:1049300000F0B5F9002C1BD0301C291CFFF77AFFC2
:10494000002815D1019B3A6808335B01D318197907
:104950004020014319710121D97103995318FF3384
:104960009A7A01210A439A7202E00120404200E053
:10497000201C05B0F0BDC0463C0D0020180C0020E6
:10498000380C0020580A002013B56C460734221C4E
:104990000123FFF799FF012801D1207801E00120D0
:1049A000404216BDF0B51C1C3A4B85B01B680E1C6E
:1049B0000292002B60D08023DB019C425CD8002255
:1049C0000092002C56D0344DF7B22B6801933B1C5B
:1049D0000833019A5B01D3189B79DB091AD02F4B5E
:1049E0002F49186800F0C2F82E4B1721584300F0E9
:1049F000BDF83B1C0833019A5B01D318DB799A0799
:104A000008D4294B9A5D002A38D1421E002835D09F
:104A1000101CEEE7244B00229A55251E3F2D00D98D
:104A20003F25224AB301D318181C02992A1C03936C
:104A300000F035F9184A7B01D318039AA9045A618A
:104A40009A69890C920B92030A439A613B1C019A62
:104A500008335B01D3180222DA715979802252425D
:104A60000A435A71009B029A5B1952190093641B06
:104A70000292A6E700980BE0012008E001229A5577
:104A80007B01ED18AB69101C9B0B9B03AB61404293
:104A900005B0F0BD3C0D0020380C002004000020C3
:104AA00040420F007011010090080020980800207B
:104AB000014A024B1A60704700500041380C002038
:104AC00010B500214022041C00F0F2F80023201C45
:104AD0002364636410BD026C10B53F23541C234053
:104AE000446CA34201D08154036410BD00230364CD
:104AF00043647047436C026C934206D0C25C3F2112
:104B000001330B404364101C01E001204042704718
:104B1000026C436CD01A00D540307047036C406C77
:104B2000834202DBC01A3F3001E0C01A01387047EF
:104B3000436C026C934201D0C05C01E00120404212
:104B40007047026C3F2301321A40436CD01A434233
:104B50005841C0B27047000002B47146490849008C
:104B6000095C49008E4402BC7047C046002934D01D
:104B70000123002210B488422CD301242407A1422F
:104B800004D2814202D209011B01F8E7E400A142EC
:104B900004D2814202D249005B00F8E7884201D387
:104BA000401A1A434C08A04202D3001B5C0822435F
:104BB0008C08A04202D3001B9C082243CC08A042D0
:104BC00002D3001BDC082243002803D01B0901D0BC
:104BD0000909E3E7101C10BC7047002801D0002031
:104BE000C04307B4024802A14018029003BDC0466A
:104BF000190000000029F0D003B5FFF7B9FF0EBC83
:104C00004243891A1847C0467047C04670B50E4BDC
:104C10000E4D0024ED1AAD101E1CAC4204D0A300B2
:104C2000F35898470134F8E700F032F9084B094D82
:104C30000024ED1AAD101E1CAC4204D0A300F358A2
:104C400098470134F8E770BD74000020740000201C
:104C5000740000209800002008B5034B011C186860
:104C600000F076F808BDC0467000002008B5034B80
:104C7000011C186800F024F808BDC0467000002030
:104C800030B50023934208D0C55C0133CC18013CF9
:104C90002478A542F6D0281B00E0002030BD10B5D6
:104CA0000023934203D0CC5CC4540133F9E710BD18
:104CB000031C8218934202D019700133FAE770473F
:104CC00030B5002940D004390B68002B00DAC91830
:104CD0001E4A1368141C002B02D14B60116033E094
:104CE00099420FD208680A189A4205D1136852688F
:104CF000C01808604A6000E04B60216024E08A42EE
:104D000003D8131C5A68002AF9D11D685C198C421B
:104D10000BD10968691858181960904214D11468A9
:104D20005268091919605A600EE08C4202D90C23AE
:104D3000036009E008680C18944203D114685268B3
:104D4000001908604A60596030BDC046440D00201B
:104D500070B50323CD1C9D430835061C0C2D01D2D4
:104D60000C2501E0002D3FDB8D423DD3204B1C681C
:104D70001A1C211C002913D00868431B0DD40B2BCF
:104D800002D90B60CC181EE08C4202D1636813601C
:104D90001AE0486860600C1C16E00C1C4968E9E7E2
:104DA000144C2068002803D1301C00F025F8206046
:104DB000301C291C00F020F8431C15D0C41C032310
:104DC0009C4384420AD12560201C0B300722231DFE
:104DD0009043C31A0BD05A42E25008E0211A301C0B
:104DE00000F00AF80130EED10C233360002070BDD2
:104DF000440D0020400D002038B5074C0023051C51
:104E0000081C236000F02AF8431C03D12368002B00
:104E100000D02B6038BDC0464C0D0020C9B20378CD
:104E2000002B03D08B4204D00130F8E7002900D0DA
:104E3000181C704730B5031C002A07D00C780133CA
:104E40005D1E013A2C700131002CF5D19A18934265
:104E500003D0002119700133F9E730BD094A136806
:104E6000002B0CD018186946884202D81060181C14
:104E70007047054B0C2201201A604042F8E7034BB3
:104E80001360EFE7480D00204C0D0020500D00206E
:104E9000F8B5C046F8BC08BC9E467047F8B5C04699
:104EA000F8BC08BC9E4670475550444154452E42BC
:104EB000494E00000000000000000000000000005B
:104EC0001F22000033220000192200005D22000092
:104ED000612300008D220000A122000000000000DC
:104EE0002F007C3C3E5E2B3D3F2F5B5D3B2C2A22FE
:104EF0005C00000000000000000000000000000056
:104F000001340000BD400000192200001D220000F5
:104F10000000000000000000000000000000000091
:104F20000000000000000000000000000000000081
:104F30000000000000000000000000000000000071
:104F40000000000000000000000000000000000061
:105500000800000010000000200000004000000023
:105510008000000000010000000200000004000004
:105520000000000016000000080000001C00000041
:10553000FF00000400040600000000001700000047
:10554000080000001C000000FF0001040104070027
:10555000000000000A000000080000001C0000001D
:10556000120000010001FF00000000000B0000001D
:10557000080000001C000000130001010101FF00F1
:10558000010000000A000000080000001C000000EC
:10559000FF00000500050A00010000000B000000EC
:1055A000080000001C000000FF00010501050B00C1
:1055B0000000000014000000080000002C000000A3
:1055C000FF000200020004000000000015000000BF
:1055D000080000002C000000FF000300030005008D
:1055E0000000000010000000020000001C0000008D
:1055F000FF00000200020000000000001100000097
:105600000200000004000000FF00FFFFFFFF010098
:105610000000000013000000020000001C00000059
:10562000FF0001030103FF0000000000080000006C
:1056300002000000040000001000FFFFFFFF100048
:10564000000000000900000002000000040000004B
:105650001100FFFFFFFFFF00010000001700000026
:105660000300000004000000FF00FFFFFFFFFF0039
:10567000010000001600000003000000040000000C
:10568000FF00FFFFFFFFFF0000000000020000001E
:1056900001000000060000000000FFFFFFFFFF0008
:1056A00001000000020000000100000004000000F2
:1056B0000A00FFFFFFFF02000100000003000000DE
:1056C00001000000040000000B00FFFFFFFF0300CB
:1056D0000000000004000000010000001C000000A9
:1056E000040000000000FF000000000005000000B2
:1056F000010000001C000000050001000100FF0087
:10570000000000000600000001000000040000008E
:105710000600FFFFFFFFFF00000000000700000081
:1057200001000000040000000700FFFFFFFFFF0072
:10573000000000001800000006000000000000004B
:10574000FF00FFFFFFFFFF00000000001900000046
:105750000600000000000000FF00FFFFFFFFFF0049
:10576000000000001200000008000000040000001B
:10577000FF00FFFFFFFFFF0000000000030000002C
:105780000800000004000000FF00FFFFFFFFFF0013
:10579000000000000C0000000200000000000000FB
:1057A000FF00FFFFFFFFFF00000000000D000000F2
:1057B0000200000000000000FF00FFFFFFFFFF00ED
:1057C000000000000E0000000800000000000000C3
:1057D000FF00FFFFFFFFFF00000000000F000000C0
:1057E0000200000000000000FF00FFFFFFFFFF00BD
:1057F000000000001B000000080000000000000086
:10580000FF00FFFFFFFFFF00000000001C00000082
:105810000800000000000000FF00FFFFFFFFFF0086
:105820000100000008000000080000000000000067
:10583000FF00FFFFFFFFFF00010000000900000064
:105840000100000018000000030001040104090029
:105850000000000000000000080000000000000040
:10586000FF00FFFFFFFFFF0000000000010000003D
:105870000800000000000000FF00FFFFFFFFFF0026
:105880000000000000000000DF440000BD400000F8
:10589000974400007F44000075440000A1440000CC
:1058A000D5440000494400008D46000059440000E2
:1058B000454400000000000000000000000000005F
:1058C00085470000B147000081470000A547000060
:1058D00099470000E9470000CD47000000000000A4
:1058E0004300000000000000000000000000000075
:1058F00000000000000000000000000000000000A8
:105900000000000000000000000000000000000097
:105910000000000000000000000000000000000087
:105920000000000000000000000000000000000077
:105930000000000000000000000000000000000067
:105940000000000000000000FFFFFFFF40420F00CA
:10595000FFFFFFFFFFFFFFFF00000000E458000013
:10596000045900002459000000000000000000005D
:105970000000000000000000E058000000000000EF
:105980000000000000000000000000000000000017
:105990000000000000000000000000000000000007
:1059A00000000000000000000000000000000000F7
:1059B000000000000000000010000020DD200000BA
:1059C00005220000ED260000A92B0000553800003C
:1059D000853A0000ED3A00000D480000B14A000091
:1059E000B5200000000000000000000000000000E2
:1059F00000000000000000000000000000000000A7
:105A00000000000000000000000000000000000096
:105A10000000000000000000000000000000000086
:105A20000000000000000000000000000000000076
:106000000080002029C1000011C1000011C1000062
:106010000000000000000000000000000000000080
:1060200000000000000000000000000011C100009E
:10603000000000000000000011C100007DC1000050
:1060400011C1000011C1000011C10000F98E000053
:10605000C1BA000011C1000011C1000015C100004B
:1060600011C1000011C1000011C10000718D0000BC
:1060700011C1000011C10000199B000011C10000F6
:1060800011C1000011C1000011C1000011C10000C8
:106090000000000011C1000011C10000C58E000009
:1060A00011C1000011C1000011C1000011C10000A8
:1060B0000000000010B5064C2378002B07D1054BDB
:1060C000002B02D0044800E000BF0123237010BD64
:1060D000700200200000000078320100044B10B56F
:1060E000002B03D00349044800E000BF10BDC046A8
:1060F000000000007402002078320100030010B597
:1061000003240268116A4268C068126A0240187C5F
:1061100020409C680C4201D004210843002A01D091
:1061200008221043821001381A740D280BD806F08B
:106130004FFC070B0E0B0A110707110A0B0E0B077A
:106140005A6901325A6110BD5A69013AFAE75A692F
:106150000232F7E75A69023AF4E7000010B5024B41
:10616000D869FFF7CBFF10BDCC03002010B5024B60
:106170009869FFF7C3FF10BDCC03002030B587B08E
:106180006D462A00094B13CB13C213CB13C2084C24
:1061900062692169200002F07DFE200063692A0007
:1061A000216902F027FE012007B030BDE80200207F
:1061B00000030020074B08491A78084B002A07D132
:1061C0001878002804D0012008701A700120704748
:1061D0000020F9E7E5020020E60200209C030020F1
:1061E00010B50121002006F0ADFA0121080006F0EB
:1061F000A9FA0121022006F0A5FA0121032006F0E8
:10620000A1FA01210F2006F09DFA0021042006F0DA
:1062100099FA0021052006F095FA0021102006F0D9
:1062200091FA0021112006F08DFA0021132006F0CA
:1062300089FA0221142006F085FA1520022106F0C1
:1062400081FA012010BD00000D23F0B504278BB0AA
:10625000314C0193033B082200930E21013B2000A7
:10626000029702F037F8200001F06CFD20000521B4
:1062700001F034FD0121200001F03CFDAF20800041
:1062800005F0C0FF2000002101F034FD234904A8DF
:1062900005F0BEFD5F2104A805F0F8FE0326421CB0
:1062A000069B04A907A805F0F7FE07A91C4805F0FE
:1062B000FFFC1C4D1C4B2000009301962B00072275
:1062C000002101F06BFE194B2000009301962B007A
:1062D0000222002101F062FE154B3A0000932000DB
:1062E0002B000196002101F059FE124B05220021DE
:1062F000009320002B00019601F050FEFA20B040E0
:1063000005F080FF07A805F034FD04A805F031FD75
:1063100001200BB0F0BDC046A4020020FE18010011
:10632000680D0020581A0100201901002D190100E4
:10633000361901004219010070B5504D8CB028008B
:1063400004F0DEF8002800D194E04D4C68462100AE
:1063500005F05EFD210003A805F05AFD210006A806
:1063600005F056FD474C3A21200005F072FE00234F
:106370000200210009A805F08FFE09A9684605F072
:10638000D7FD09A805F0F5FC3A21200005F07EFEB6
:106390003A210600200005F05CFE3200431C21007B
:1063A00009A805F079FE09A903A805F0C1FD09A80F
:1063B00005F0DFFC3A21200005F068FEA368421CCE
:1063C000210009A805F068FE09A906A805F0B0FD9E
:1063D00009A805F0CEFC2C49280005F04DFC6946C3
:1063E00009A805F09BFD294C09A8210005F014FE21
:1063F0000100280005F039FC09A805F0BAFC03A942
:1064000009A805F08BFD210009A805F005FE010093
:10641000280005F02AFC09A805F0ABFC06A9280015
:1064200005F046FC684605F055FE194C206003A8AF
:1064300005F050FE174E306006A805F04BFE164DD5
:106440002168164C2860C9B2200002F094F9316826
:106450002000C9B202F06EF929682000C9B202F02A
:106460004EFA06A805F085FC03A805F082FC6846F4
:1064700005F07FFC01200CB070BDC046680D002007
:106480006E2E0100980200203A1A01003419010012
:106490008C02002090020020940200205C03002067
:1064A00010B50849084802F0A3FD002807D10749A4
:1064B000074805F007FC0A2005F0A4FEFBE70120D1
:1064C00010BDC04690040020840300201F1A010064
:1064D000680D002010B50C4C200003F05FF9002877
:1064E00003D10A490A4805F0EDFB2000002103F022
:1064F000B7F880212000C90103F0D8F9200000215D
:1065000003F09CF8012010BD64030020E319010092
:10651000680D002010B5074803F0DBFA031E06489B
:1065200004D1064905F0CEFB012010BD044905F059
:10653000B5FBF9E734030020680D0020FE190100C7
:10654000191A010007B520225721684603F0D6FA30
:1065500001200EBD10B586B06C4609482200436983
:10656000016902F0A9FC074A130007CC07C307CC56
:1065700007C30549054805F0A5FB012006B010BD7D
:1065800000030020E8020020491A0100680D0020E5
:1065900010B50C4C237E012B11D872B62000FFF7EA
:1065A000ADFD636962B6084A1360084A11689942F2
:1065B00003D013600122064B1A70012010BD72B681
:1065C000EFE7C046C0020020E002002004000020E7
:1065D0001000002072B6024B586162B6012070476D
:1065E000C0020020174B13B51868023807280ED8D0
:1065F00006F0EEF904040F0F15152323124B134A6E
:10660000D96818691160124B1860FFF7E3FF012089
:1066100016BD0D4B0D4A596898681160F3E76B463B
:106620000C4CDA1D991D200002F050F80A4B18603E
:10663000200002F029F8094BE6E7034B5869084BA4
:10664000E2E7C046A0030020E8020020C0030020CB
:10665000B80300205C030020C8030020C40300200E
:10666000BC030020F8B5152006F0E4F84342584179
:10667000234F387005F090FD224E3368C01A224B2C
:106680001B68984233D93B78002B2DD01F4B1D78C7
:10669000002D29D11E4C2378002B17D01D4B1B68D1
:1066A000063B012B25D81C4B1C481968C9B202F0C7
:1066B00062F81B4B19481968C9B202F03BF8280070
:1066C000FFF788FF1749184805F0FCFA2378002BDC
:1066D00001D1FFF787FF012523786B40237005F078
:1066E0005BFD124B30601D703B78084A137001202F
:1066F000F8BD2800FFF76EFFFFF740FDE6E7C04654
:10670000DD0200209803002008000020DC020020A9
:10671000DE020020A0030020B00300205C03002064
:10672000A80300204B190100680D00201000002074
:1067300010B5142006F07EF843425841014B187002
:10674000012010BD7003002010B5042006F072F87F
:10675000431E9841014B1870012010BDE502002036
:1067600010B5052006F066F8431E9841014B1870DD
:10677000012010BDE402002010B5132006F05AF8E5
:1067800043425841014B1870012010BD44030020C2
:1067900070B5002020240A4B1D6806F0DFFF291C7D
:1067A00006F018FB013C06F0B9FF002CF5D11F22C2
:1067B000C31713401818034B40111860012070BD17
:1067C0004C0300204803002073B5782400251020D6
:1067D00005F04AFF013C2D18002CF8D12800782143
:1067E00006F094F9FA21054E230000963200490084
:1067F00005F084F9024B1860012076BDFF0300000C
:106800001803002070B5002032240F4B1D68291C8E
:10681000013C06F0DFFA002CF9D10C4906F074FCBB
:106820000B4906F049FE08F0C1FD0A4A0A4B07F081
:106830003BFB0022002307F01BF808F015FD074B77
:106840001860012070BDC04650030020000048427F
:1068500000007A433D0AD7A3703D02405403002054
:1068600010B5034802F088FB024B1860012010BDF0
:10687000840300207403002010B5044C01002000A4
:1068800003F014F8200003F079F810BD6403002031
:10689000802010B5C001FFF7EFFF084B1860A02063
:1068A000C001FFF7E9FF064B1860C020C001FFF7E9
:1068B000E3FF044B1860012010BDC04650030020C8
:1068C000580300204C03002073B50024FF262B4DF5
:1068D000280000F0DEFF280001F02EF82800230039
:1068E00021000094FF2201F057F92300FF2201212B
:1068F0002800009401F050F9280001F01DF8C8208C
:1069000005F080FC2800220021000094FF2301F004
:1069100043F92200FF2301212800009401F03CF9F3
:10692000280001F009F8C82005F06CFC280000964A
:1069300023002200210001F02FF923002200012171
:106940002800009601F028F9280000F0F5FFC82083
:1069500005F058FC2800230022002100009401F0DB
:106960001BF92800230022000121009401F014F9F2
:10697000280000F0E1FF012076BDC0461C03002086
:1069800013B5074CC0B2D2B2CBB2009200210200C4
:10699000200001F001F9200000F0CEFF012016BD1B
:1069A0001C0300200B4B10B51B6800226D2B05DC6F
:1069B00011000A20FFF7E4FF012010BD872B05DD41
:1069C0000A211000FFF7DCFF0020F6E7110010009D
:1069D000F8E7C04654030020F0B5D64B97B01D78B9
:1069E000D54C002D00D013E2D44B18682060082845
:1069F00000D900E20238062809D8D14C05F0F2FF90
:106A00005A005A00BB00BB000B010B01C601CD4868
:106A100001F008FFCC4B041C186806F09FFE211CF7
:106A200006F0D8F906F07AFEC84B010018600A2279
:106A300010A805F01DFAFFF7B5FF041E26D1C049C6
:106A400013A805F0E5F910A913A805F0D8FA032753
:106A5000BF4905F0E1FA01970368BE4EBE4D04221E
:106A6000210000932800330001F098FA13A805F0E4
:106A700080F9BA4B062200932100330028000197C9
:106A800001F08CFA10A805F074F9BAE10327B14EB1
:106A9000B14CB34B0622009329003300200001972C
:106AA00001F07CFAAF4B01970093042233002900D8
:106AB0002000E5E7AC4D07A8290005F0A9F9290059
:106AC0000AA805F0A5F9A94E0A22F1680DA805F05B
:106AD000CFF931690A2210A805F0CAF9F368A44970
:106AE000092B00DD290007A805F02AFA3369A0491F
:106AF000092B00DD29000AA805F022FA210013A8BD
:106B000005F086F907A913A805F079FA0DA905F093
:106B100076FA984905F080FA0AA905F070FA10A9EA
:106B200005F06DFA944905F077FA0326210005F087
:106B300073FA01960368874D874C009304222B005B
:106B40000021200001F02AFA13A805F012F98B4B5E
:106B5000019606220021009320002B0001F01EFA6E
:106B600010A805F006F90DA805F003F90AA805F02C
:106B700000F907A887E77C4D07A8290005F048F928
:106B800029000AA805F044F9784E0A2271680DA878
:106B900005F06EF9B1680A2210A805F069F973686A
:106BA0007349092B00DD290007A805F0C9F9B3686E
:106BB0006F49092B00DD29000AA805F0C1F9210061
:106BC00013A805F025F907A913A805F018FA0DA9CF
:106BD00005F015FA674905F01FFA0AA905F00FFA42
:106BE00010A905F00CFA644905F016FA03262100F5
:106BF00005F012FA01960368564D574C0093042293
:106C00002B000021200001F0C9F913A805F0B1F80C
:106C100001965B4B9DE70F234A4C6B44190004AA75
:106C2000200001F053FD0A22010007A805F00FF92A
:106C3000200001F029FD0A2201000AA805F007F949
:106C4000200001F0FFFC0A2201000DA805F0FFF86A
:106C5000474910A805F0DCF80F236B4404AA19007B
:106C6000200001F033FD09280ED810A913A805F063
:106C700055F907A913A805F0C2F9010007A805F006
:106C80003DF913A805F075F8200001F0FDFC092876
:106C90000ED810A913A805F041F90AA913A805F008
:106CA000AEF901000AA805F029F913A805F061F86A
:106CB000200001F0C7FC09280ED810A913A805F080
:106CC0002DF90DA913A805F09AF901000DA805F0FA
:106CD00015F913A805F04DF8234913A805F098F805
:106CE00007A913A805F08BF9224C210005F094F9AF
:106CF0000AA905F084F9210005F08EF90DA905F027
:106D00007EF9204905F088F90D4905F085F9012340
:106D1000019303680F4D104C009304222B000021B7
:106D2000200001F03BF913A805F023F80323019399
:106D3000154B0EE7DE020020A0030020E002002039
:106D40005D1901005C03002014000020B403002042
:106D50005B190100AC1C0100A402002063190100B2
:106D600074190100801901006E2E0100E802002054
:106D7000C319010034190100AF1901008F19010076
:106D8000A0190100AE190100B4190100210013A8D7
:106D900005F03EF8D04B0A22596910A805F068F8B2
:106DA00010A913A805F02BF9CC4905F035F92100FD
:106DB00005F032F9032601000DA805F0AFF810A880
:106DC00004F0D7FF13A804F0D4FFC54DC54C0D9BAC
:106DD0000422009300212B002000019601F0DEF830
:106DE000C14B0622009300212B002000019601F0E8
:106DF000D5F80DA847E6092806DD00202060FFF73A
:106E0000E9FB012017B0F0BD0028FADA0820F5E709
:106E10000323B34FB34E0193B44B300000930622CB
:106E20003B00002101F0BAF820680828E3D80238B6
:106E30000628E6D8AE4D05F0D5FD07000700850011
:106E40008500C700C7002501AA4E04A8310004F040
:106E5000DFFF310007A804F0DBFF2B689E4C3B2BC3
:106E60005AD82361E368A449092B00DD310004A846
:106E700005F066F82B68A049092B00DD310007A852
:106E800005F05EF89D4C0DA8210004F0C1FF04A997
:106E90000DA805F0B4F80A2205008F4BD96810A898
:106EA00004F0E6FF10A9280005F0A9F8944905F0C0
:106EB000B3F807A905F0A3F805008D4B0A2219685D
:106EC00013A804F0E7FF13A9280005F098F88D49EE
:106ED00005F0A2F8210005F09FF801000AA805F0CE
:106EE0001DF813A804F045FF10A804F042FF0DA8F8
:106EF00004F03FFF032301930A9B04220021009327
:106F00007848774B01F04AF80AA804F032FF07A846
:106F100004F02FFF04A8B6E53B2B0ADD0020FFF7A5
:106F200059FBE368162B02D80133E3609AE700238C
:106F3000FBE73A20FFF74EFBE368013B162BF4D941
:106F40001723F2E76B4E04A8310004F061FF310013
:106F500007A804F05DFF2B685F4C3B2B1ED8A36095
:106F600063686549092B00DD310004A804F0E8FFDF
:106F70002B686149092B00DD310007A804F0E0FF10
:106F80005E4C0DA8210004F043FF04A90DA805F0F4
:106F900036F8514B05000A22596880E73B2B0ADD81
:106FA0000020FFF717FB6368162B02D801336360DC
:106FB000D6E70023FBE73A20FFF70CFB6368013BB1
:106FC000162BF4D91723F2E74A4E04A8310004F037
:106FD0001FFF310007A804F01BFF2B684A4C3B2B16
:106FE0003AD84A4A136023684349092B00DD31002F
:106FF00004A804F0A5FF2B683F49092B00DD3100F0
:1070000007A804F09DFF42490DA804F001FF04A960
:107010000DA804F0F4FF04003B4B0A22196810A8E5
:1070200004F026FF10A9200004F0E9FF344904F021
:10703000F3FF07A904F0E3FF04002D4B0A221968AF
:1070400013A804F027FF13A9200004F0D8FF2D494E
:1070500004F0E2FF29493EE73B2B0ADD0020FFF761
:10706000B9FA2368162B02D801332360BBE700234B
:10707000FBE73A20FFF7AEFA2368013B162BF4D961
:107080001723F2E72B68234D134C290013A86361E3
:1070900004F0BEFE0A22616910A804F0E9FE10A9FE
:1070A00013A804F0ACFF0D4904F0B6FF290004F06A
:1070B000B3FF01000DA804F031FF10A804F059FE41
:1070C00013A804F056FE032301930D9B04220093A2
:1070D00000213B0030008AE6E8020020BF190100D1
:1070E000AC1C0100A4020020C5190100D319010045
:1070F000E00200206E2E0100C31901005F1901009B
:1071000034190100AF190100B0030020A8030020CA
:10711000601901005D19010013B5074CC0B2D2B26D
:10712000CBB2009201210200200000F035FD2000CA
:1071300000F002FC012016BD1C030020002213B544
:10714000054C009213000121200000F025FD2000D5
:1071500000F0F2FB012016BD1C03002010B500203A
:10716000012105F03BFB012010BD002110B50800F6
:1071700005F034FB012010BD70B50C4D0C4C2B7884
:10718000002B06D005F008F82060FFF7E7FF00238A
:107190002B7005F001F82368C01A064B1B68984253
:1071A00001D9FFF7E2FF012070BDC04610000020AA
:1071B0007C0300200C00002010B50F20012105F0F9
:1071C0000DFB012010BD000070B50F4E3578002D6D
:1071D00018D104F0E1FF01240C4B34701860FFF764
:1071E000EBFF2100022005F0F9FA2900032005F049
:1071F000F5FA64212A000800FFF78EFF2100200025
:1072000005F0ECFA012070BDAC03002078030020EB
:1072100070B50F4E3578002D18D104F0BDFF012454
:107220000C4B34701860FFF7C7FF2900022005F0EF
:10723000D5FA2100032005F0D1FA642228001100BC
:10724000FFF76AFF2100200005F0C8FA012070BD99
:10725000AC0300207803002073B56B460E4CDA1D9A
:10726000991D200001F032FA0600200001F00CFA0E
:107270000A4C05006368B34204D1A368834201D17C
:10728000FFF7A2FFE368B34204D12369AB4201D107
:10729000FFF7BEFF012076BD5C030020E80200205E
:1072A0000F2370B596B06B441A000E23554C6B44F7
:1072B0001900200001F00AFA0A22010004A804F0D3
:1072C000C6FD200001F0E0F90A22010007A804F041
:1072D000BEFD4D490AA804F09BFD0F236B441A0024
:1072E0000E236B441900200001F0F0F909280ED894
:1072F0000AA913A804F012FE04A913A804F07FFE43
:10730000010004A804F0FAFD13A804F032FD2000E7
:1073100001F0BAF909280ED80AA913A804F0FEFD55
:1073200007A913A804F06BFE010007A804F0E6FD0E
:1073300013A804F01EFD200001F084F90A220100C8
:107340000DA804F084FD314B0125186806F006FAFB
:1073500008F02CF82E4B2F4A07F0B0F908F078F817
:107360000122011C10A804F0F6FD2B4C200000F0B7
:10737000E9FC11227F2300922000002100F0ABFEE7
:1073800004A913A804F0CAFD244913A804F044FE7C
:1073900007A904F034FE00220195214E0368110074
:1073A00000932000330000F0F9FD13A804F0E1FC85
:1073B00010A913A804F0B2FD1A4913A804F02CFE7A
:1073C0000223002201930368110000932000330080
:1073D00000F0E4FD13A804F0CCFCFFF73DFF10A87B
:1073E00004F0C7FC0DA804F0C4FC0AA804F0C1FC1A
:1073F00007A804F0BEFC04A804F0BBFC280016B0EB
:1074000070BDC0465C030020C31901005403002076
:107410009999B93F9A999999A402002034190100C9
:10742000AC1C010059190100F8B5154E154D337803
:10743000002B1AD02F68002F17D1134C0A22216875
:10744000124804F08CFC23680133032B07DC236013
:107450002068032809D805F0BBFA040C040F276044
:10746000F6E70021012005F0B9F9337801202B60FF
:10747000F8BDFFF7A9FEF8E7FFF7CAFEF5E7C0463B
:10748000700300208003002060030020680D0020AE
:1074900010B50F20002105F0A1F9012010BD00005A
:1074A00070B5114C05002378002B1AD004F074FE3F
:1074B0000E4B1B68C31A64206843834211D9002114
:1074C000022005F08BF90021032005F087F9002147
:1074D000012005F083F9FFF7DBFFFFF72FFE002304
:1074E0002370012070BDC046AC030020780300204B
:1074F000124B10B5011C186805F058FC002807D085
:107500000022FF201100FFF73BFA0020FFF7C8FF21
:107510000B4B1B78002B07D0FF2100220800FFF740
:107520002FFA0020FFF7BCFF064B1B78002B02D080
:107530000020FFF7B5FF012010BDC04674030020F6
:1075400044030020E602002010B581B2024802F098
:1075500053FA012010BDC046340300200E4B10B575
:107560001868002815DD07F0B5FE0C4A0C4B07F033
:10757000A5F802000B000B480B4907F011FB0B4A62
:107580000B4B06F091FC07F06FFEFFF7DDFF0120CB
:1075900010BD0848F9E7C046B4030020EC51B81EFE
:1075A00085EB913F3333333333B32940E78C28EDF8
:1075B0000DBE803F2306000070B5FEF7E9FF0028EE
:1075C000FBD0FFF74FF80028FBD0FFF7B1F80028F9
:1075D000FBD0FFF7D1F80028FBD0FFF7B5F8002863
:1075E000FBD0FFF7BDF80028FBD0FFF7D1F800284B
:1075F000FBD0FFF7E9F80028FBD0FFF703F90028DC
:10760000FBD0FFF72DF90028FBD0FFF7B5FD0028D0
:10761000FBD0FFF73DF90028FBD0FEF7CBFD00289B
:10762000FBD0FFF7D9F90E4B5869FFF739FF0D482A
:10763000FFF75EFFFFF792FFFFF7F6FEFFF7B2F9E5
:10764000094D280001F020F8084C2368984205D025
:10765000FFF726FE280001F017F8206070BDC04635
:10766000E8020020000052435C030020A403002035
:1076700070B5474C522312220221200000F076FA06
:10768000444D45492A00200005F09AF900210620C2
:1076900005F058F80121062005F0A0F80021072088
:1076A00005F050F80121072005F098F83B4B012127
:1076B0001A00903212783A4852B23A4CD20112185B
:1076C00022601A000E009432126896401A00A660DA
:1076D000A8321278AC3352B21B68D2011218FA20C9
:1076E00099400023C0006260E160636104F0ACFD7A
:1076F0002368A2681B6AE16813405A1E93416268BE
:10770000DBB2126A114201D002221343264E02223A
:1077100026490620B461237404F03AF901230222B9
:1077200023490720F461237604F032F9237E0133E4
:107730002376204C200000F052FA2A001E49200037
:1077400005F03EF91D4800F077FF1D4C1D49200053
:1077500004F05EFB2A001C49200005F031F91822D4
:107760001A491B4801F02EFB1A4C4021200001F061
:10777000D1FB2A001849200005F022F94821174BB7
:10778000174A1972174818311A6002F001F970BDD2
:107790001C0300200000002075780000202A010052
:1077A00000440041C0020020CC0300206D610000B5
:1077B0005D610000A4020020AD8100005C03002098
:1077C000980200204219010073BD0000002301004F
:1077D0000003002084030020238F000064030020A6
:1077E0009004002034030020E12110B5074C490229
:1077F000200002F035FD0649200004F063FA9620CF
:10780000400004F0FFFC012010BDC046680D0020C0
:10781000F018010010B5024801F0E0F8012010BD99
:107820009004002007B5FEF7DBFCFFF74DF8FFF7EB
:10783000DBFFFEF709FDFFF7EDFFFEF731FEFEF778
:107840007BFDFEF747FEFEF765FEFEF77BFEFEF7CB
:1078500081FE0023402200938021044800F0F6F9C5
:10786000034B1868FEF7B6FE07BDC046A402002011
:10787000A003002010B50400C06807F0D1FE062365
:10788000E05E002803DBC0B2002104F05BFF2000B3
:1078900010BD10B504000623C05E002807DBC0B28F
:1078A000012104F04FFFA079002104F097FF01238C
:1078B000637010BD70B50500C0680E0007F0B0FE23
:1078C0002B7CEC7CE41A631E9C4103347443A4B209
:1078D000AC80200007F09AFEE860002805D0220066
:1078E000002107F0D5FE6E8070BDA8806880FBE7A0
:1078F0000322F8B58B110D118E1016401340154060
:107900000A40467482740026FF228A427641C26889
:10791000C47C077CC37405740670002A0AD0E21B7D
:107920005B1B51424A4159424B419A4202D0418825
:10793000FFF7C0FFF8BD0000F8B5C3680400002BD6
:1079400000D1EFE004F02EFC6369984200D2606140
:107950006369C01A2C23FF339842F3D972B606220A
:10796000A35E1822012053436F4FA688FA1852686D
:10797000DB5D9040E268DB019619511C15786B4A7B
:107980009F186B4A9B182278002A00D058E080325A
:1079900094463860C046C046C046C046C046C04651
:1079A000C046C046C046C046C0462A4200D192E00A
:1079B000C046C046C046C046C046C046C046C04697
:1079C000C046C046C046C046C046C046C046C04687
:1079D000C046C046C046C046C046C046C046C04677
:1079E000C046C046C0461860C046C046C046C046F5
:1079F000C046C046C046C046C046C046C046C04657
:107A0000C046C046C046C046C046C046C046C04646
:107A1000C046C046C046C046C046C046C046C04636
:107A2000C046C046C046C046521000D170E0D2B237
:107A3000C046C046C046C046C046C046C046A8E78D
:107A4000802294463860C046C046C046C046C04604
:107A5000C046C046C0462A4221D0C046C046C046A5
:107A6000C046C046C046C046C046C046C046C046E6
:107A7000C046C046C046C046C046C046C046C046D6
:107A8000C0461860521020D0D2B2C046C046C04690
:107A9000C046C046C046C046C046C046D2E7186091
:107AA000C046C046C046C046C046C046C046C046A6
:107AB000C046C046C046C046C046C046C046C04696
:107AC000C046C046C046C046DCE7B14226D20D786B
:107AD00062460131B6E71860C046C046C046C0469F
:107AE000C046C046C046C046C046C046C046C04666
:107AF000C046C046C046C046C046C046C046C04656
:107B0000C046C046C046C046C046C046C0466BE7F9
:107B1000B14203D20D78624601313AE762B604F011
:107B200041FB6061F8BDC046202A010018440041B5
:107B30001444004170B5437805000C00002B07D0B9
:107B40000623C05E002803DBC0B2002104F0FAFD6A
:107B50006B78EC80002B08D0E4B20121200004F007
:107B6000F1FD0021200004F039FE70BD70B5150054
:107B7000002204000E0042700272C26042611900CD
:107B8000FFF7B6FE31002000FFF794FE2900200029
:107B9000FFF7D0FF200070BDF0B505AC2578448814
:107BA0008C4216D9047A002C05D0624363436543A6
:107BB000120A1B0A2D0AC47C077CC668A74209D199
:107BC000032461437118047C0A55427C8B54837CE6
:107BD000CD54F0BD8900711800260E55F3E77047AB
:107BE00003798420032B03D00438042B00D11A38E6
:107BF000704770B504000D0004A901C965740978C7
:107C0000A2746361A0612174530703D008239A42D0
:107C100015DAA374A07CC008E074684304F0B4FBD8
:107C20000023E06018009D420FDD1A000021E67C71
:107C30008E4208DDE6680131B0545219F7E7083387
:107C4000482BE4D1E6E70133EDE770BD13B500241E
:107C50000194049C0094FFF7CCFF13BDF8B5437961
:107C600006000C0008250127002B04D0806803685B
:107C70009B689847F8BD63B270783900002B00DB31
:107C8000002104F0ABFD013DB078002104F0A6FD19
:107C90006400B0783900EDB2E4B204F09FFD002D2D
:107CA000E9D1E7E770B504000D000078002104F089
:107CB00095FD29002000FFF7D1FF2078012104F075
:107CC0008DFD70BD70B50D0004000021C07804F07A
:107CD00085FD29002000FFF7E5FF70BD70B50C00A1
:107CE00081210500FFF7EEFF3F2128002140FFF72B
:107CF000E9FF70BD10B5002903D1A431FFF7E2FF01
:107D000010BDA521FAE7F8B5837906000C0015002F
:107D1000002B04D00379032B01D00434E4B22109F1
:107D200030001031FFF7CEFF0F272100300039401F
:107D30003D40FFF7C7FF290050393000C9B2FFF7B7
:107D4000C1FFF8BDF7B50822037904000192032BA7
:107D500001D101330193002501272A0000212000D1
:107D6000FFF7D1FF2078002104F038FDE0783900DA
:107D700004F034FD00262000FFF732FFB04206D9A0
:107D8000002120000136FFF769FFF6B2F3E7207803
:107D9000390004F023FD0135019BEDB2AB42DCD18B
:107DA000F7BDF0B591B0029316AB170004CB0400F9
:107DB0001B789446039318AB1B7801910693029BA2
:107DC0000D929B780A93029BDB780C93029B1B79A4
:107DD0000493029B9D79DB790F9300231E0062467A
:107DE000117800290AD0012294440A9A9142F6D3CC
:107DF00032000C98884272419B18F0E7049A21796E
:107E00005A43EB19059203293CD0082B02DD0825C3
:107E1000ED1BEDB2039B022B3CD1019B002B35D116
:107E20002000FFF7DDFE059BC31A0193ED19EBB2AD
:107E30000E93082307930E9BBB4200D1ACE00222B5
:107E4000069B023B9343DBB20393002B2ED1190018
:107E50003A002000FFF757FFE078012104F0BEFC54
:107E60002078039904F0BAFC039D019BAB4225DD09
:107E7000069B0135FF21042B00D000212000FFF7D5
:107E8000EDFEF2E7042BC5DD0425C1E7019B059A51
:107E90009B1ACAE7039B032BC8D12000FFF7A0FE63
:107EA000059BC01AC30F18184310BEE7019B002B97
:107EB0004CDA3A0000212000FFF725FFE07801218D
:107EC00004F08CFC2078002104F088FC0D9B019DBF
:107ED0000993099B1E78002E3ED02000FFF780FEFC
:107EE000099B01330993A842F3DB049B5B190893B8
:107EF00030D40A9B9E42ECD30C9B9E42E9D80A9B4D
:107F00000F9AF31A5343079A9B18049A0B92089AF4
:107F1000904202DA401BC2B20B920026B54201DA4F
:107F20006E42F6B2F518029B5D190B9B9E4211D270
:107F3000069B2978033B012B01D8C943C9B2200015
:107F40000136FFF78BFEF6B20135EEE76B463A00DD
:107F50001979B0E7089DBCE7039B002B11D1019B69
:107F6000059A9D182000FFF73BFEA84209DD069BFD
:107F70000135FF21042B00D000212000FFF76EFE09
:107F8000F0E72078012104F029FC049A079B94462D
:107F90000137FFB263444DE711B0F0BD7FB5012654
:107FA00008AC20CC2478029600950194FFF7F9FEE6
:107FB0007FBDF0B585B01F000AAB1E780BAB1B78F8
:107FC0000400039301911500FFF70AFE031CB84259
:107FD00000D93B1CDBB202932379371C032B1DD045
:107FE000072E00D90727FFB2AF4222D32A000199FA
:107FF0002000FFF788FEE078012104F0EFFB2078F5
:10800000002104F0EBFB019E029B9E420AD80399DB
:1080100020000136FFF722FEF6B2F5E7032EE2D983
:108020001F1CE0E720780121013504F0D7FBEDB2F9
:10803000DAE705B0F0BDF0B587B00593437C0400E6
:108040000E00170003938B4240DD817C91423DD9A5
:10805000002E3BDBC07C504304F058FD6B4604907F
:108060001D7C039BE2686B439B19D1180122EB0036
:10807000FF1ABA40002053B2059A0856002A27D0AA
:1080800003430B70237C002B20D163699F191DD4FF
:108090002000FFF7A5FD874218DAA269511915D40F
:1080A00020790423032800D0DB1899420EDA049BC0
:1080B000F9B2D218637CD2B25D43E36820009E1906
:1080C000735D009201930B00FFF773FF07B0F0BDE3
:1080D00098430870D6E7F0B587B002935B1A160094
:1080E000DA179B185340019301230393029B0590D9
:1080F0000F008B4202DC01235B4203930C9B9D1B10
:10810000EB17ED185D40012304930C9BB34202DC96
:1081100001235B420493019B5C10AB4203DCEC0F38
:108120006419641064420123320039000598FFF796
:1081300082FF029B9F4202D10C9B9E420FD0019B6B
:108140005A422300A24202DA039A631BBF18AC42D0
:1081500003DA019A9B18049AB6181C00E3E707B0EB
:10816000F0BD70B50C00160005000021007804F089
:1081700035FBA619217828000134FFF76FFDB442C2
:10818000F8D12878012104F029FB70BD10B543799E
:108190000400002B02D0044800F0BAF8E068002880
:1081A00001D004F0F9F810BD4804002010B5040017
:1081B000FFF7ECFF200010BD10B50400080021708F
:1081C0009A422ED101236371073363700133A37088
:1081D000164BA360012104F001FB2078012104F07B
:1081E000B1FA6078012104F0ADFAA078012104F021
:1081F000F5FAA078012104F0A5FA6379002B0FD0DD
:108200000A4C200000F05CF90121200000F09CF9EC
:108210000321200000F0A2F90C21200000F0B2F9A7
:1082200010BD002162706171A370D3E74804002083
:10823000F0B585B003930AAB1E780BAB1F780CAB7F
:108240001D780023040083710191C6700121300064
:10825000029204F077FA039B029A01992000FFF73B
:10826000ABFF3800002104F0B9FA0121380004F016
:1082700069FA0A2003F0E8FF3800012104F0AEFAA1
:10828000012003F0BFFF0F4F012D09D00E4F022D2B
:1082900006D00E4F032D03D00D4F042D00D0094FF3
:1082A00025710021300004F099FA0D22042D00D030
:1082B0000E2239002000FFF754FF2000FFF742FD97
:1082C00005B0F0BD2600002018000020340000207A
:1082D000420000207FB508AC09AD0AAE2D78367893
:1082E0002478029601950094FFF7A2FF7FBD70B538
:1082F00006000C008D18AC4207D0336821789B68CB
:108300003000984720700134F5E770BD7047704722
:1083100010B50400406801F0EFFC0023237610BD87
:1083200010B5406801F05AFD10BDF8B50500406871
:108330000C0001F015FD2B68E7B2260A9B680128A6
:1083400010D139002800FF2798472B68BC4304430D
:108350009B683100280098470302200038401843EA
:1083600080B2F8BD310028009847FF262B68000234
:10837000344004439B68390028009847B4432043A5
:10838000EEE710B5040004F003F8200010BD000073
:1083900010B54B1C0BD0102909D0EFF3108472B626
:1083A000102905DD02234376002C00D162B610BDF2
:1083B0000123427E1A43427618224A43044989180F
:1083C00016228A569340C2691343C361ECE7C04644
:1083D000202A01004B1C17D0102915D0437E9B0783
:1083E00012D4EFF3108272B618234B430749C91811
:1083F0000123897D49B28B40C1699943C16100D194
:108400004176002A00D162B67047C046202A01009A
:10841000437E002B05D09A0704D5837E002B00D025
:1084200062B67047DB07FCD5C369024A9BB2D360D2
:10843000F7E7C04600180040037E002B04D14376C6
:108440008376C36101330376704700007FB503690B
:1084500002AE04000D00029172608B4203D1828A49
:10846000B3889A4226D0200006223100103007F04F
:10847000F3F8606801F057FC7379E17A013B581E0C
:108480008341227B00936068002301F037FE33793B
:108490000021013BDBB2022B01D8074AD15C074B1C
:1084A0002A009D4200D91A00606801F00DFC606846
:1084B00001F02FFC7FBDC04600240100001BB70067
:1084C00070B518260400FFF7B7FF33000821207AA3
:1084D0000D4D4343EB18595604F0C4F933000821FD
:1084E000A07A4343EB18595604F0BCF90821607A8E
:1084F0004643AD19695604F0B5F9044B200006CB8C
:10850000FFF7A4FF70BDC046202A010088040020A8
:1085100007B5437E00910192002B07D09A070AD538
:10852000EFF310835A425341837672B60099019A51
:10853000FFF78CFF07BDDB07F8D5C369014A9BB283
:108540009360F3E70018004010B54068002903D19C
:10855000013101F0F1FB10BD0021FAE710B5030075
:10856000032908D8080004F033FA0207090B002198
:10857000586801F013FC10BD0121F9E70221F7E76B
:108580000321F5E710B54068032900D8042101F064
:10859000EDFB10BDF7B500240125194B194A5D719B
:1085A0001A601C71184B1948083301930360184B6B
:1085B000184F4360184B194E038109233A003100CC
:1085C0004575046104758372063B0476C4720373B7
:1085D00004F0F6F91248134B019A4360124B4575AB
:1085E00003811B233100026004613A000475837229
:1085F000183B0476C472037304F0E2F9F7BDC04679
:108600008804002000093D000424010048040020E3
:10861000400D0020000000200A0800000F83000029
:1086200068040020580D00201D1A000010B50368D2
:10863000C9B21B68984710BD014B03607047C04624
:108640009004002010B50400006868210368DB6A0C
:10865000984700212068FFF7E9FF206803685B6BFB
